:020000040800F2
:10000000F841002029020008711A00085117000861
:100010006D1A00081F040008E92300080000000012
:100020000000000000000000000000003B0200088B
:1000300003050008000000003F020008111B000833
:10004000430200084302000843020008430200087C
:10005000430200084302000843020008430200086C
:10006000430200084302000843020008430200085C
:10007000230400084302000843020008430200086A
:10008000430200084302000843020008430200083C
:10009000430200084302000843020008430200082C
:1000A000430200084302000843020008430200081C
:1000B000430200084302000843020008430200080C
:1000C00043020008430200084302000843020008FC
:1000D000430200084302000843020008C52200084A
:1000E00043020008430200084302000843020008DC
:1000F00043020008430200084302000843020008CC
:1001000043020008430200084302000843020008BB
:1001100043020008430200084302000843020008AB
:10012000430200084302000843020008430200089B
:10013000430200084302000843020008430200088B
:10014000430200084302000843020008430200087B
:10015000430200084302000843020008430200086B
:10016000430200084302000843020008430200085B
:100170004302000843020008430200080000000098
:10018000430200084302000800F002F800F03CF8C7
:100190000AA090E8000C82448344AAF10107DA45E2
:1001A00001D100F031F8AFF2090EBAE80F0013F0F8
:1001B000010F18BFFB1A43F001031847F024000099
:1001C00010250000103A24BF78C878C1FAD8520729
:1001D00024BF30C830C144BF04680C6070470000C1
:1001E0000023002400250026103A28BF78C1FBD840
:1001F000520728BF30C148BF0B6070471FB502F0DF
:1002000040FA1FBD10B510BD00F0CFF81146FFF742
:10021000F5FF02F041F900F0EDF803B4FFF7F2FF4B
:1002200003BC00F0F5F80000094880470948004782
:10023000FEE7FEE7FEE7FEE7FEE7FEE7FEE7FEE796
:10024000FEE7FEE704480549054A064B70470000F3
:10025000CD1B000889010008F8010020F8410020AA
:10026000F8210020F821002053EA020C00F06980F8
:100270002DE9F04B4FF00006002B1FBFB3FA83F5BA
:1002800003FA05F424FA05F65E4012BF1643B2FAEB
:1002900082F502FA05F4C5F120051EBF22FA05FC1D
:1002A00044EA0C04203556EA044C4FEA144418BFC3
:1002B000641C4FF000084FF00009904271EB030CF2
:1002C00039D3002919BFB1FA81F701FA07F6B0FA5C
:1002D00080F700FA07F6C7F120071EBF20FA07FCD7
:1002E00046EA0C062037B6FBF4FCA7EB0507103FE7
:1002F00007F01F0BCBF120060CFA0BFB2CFA06F6CD
:1003000044BFB3460026202FA4BF5E464FF0000B2B
:100310005BEA060C08BF4FF0010B19EB0B09ABFBB6
:10032000027C48EB0608C01B06FB02CC0BFB03CC8F
:1003300071EB0C01C1E70B46024641464846BDE859
:10034000F08B13B54FF000004FF00001AFF30080C9
:10035000BDE81C4070474FF0000200B513469446BC
:100360009646203922BFA0E80C50A0E80C50B1F10D
:100370002001BFF4F7AF090728BFA0E80C5048BF21
:100380000CC05DF804EB890028BF40F8042B08BFBF
:10039000704748BF20F8022B11F0804F18BF00F8BB
:1003A000012B7047704770477047754600F02CF876
:1003B000AE4605006946534620F00700854618B052
:1003C00020B5FFF73FFFBDE820404FF000064FF09B
:1003D00000074FF000084FF0000B21F00701AC467A
:1003E000ACE8C009ACE8C009ACE8C009ACE8C00999
:1003F0008D46704710B50446AFF300802046BDE837
:100400001040FFF70ABF0000004870479801002025
:1004100001491820ABBEFEE726000200704700BF6E
:10042000FEE770470146087810381823B0FBF3F256
:100430000848805CC865032A05D908686FF309007D
:10044000001D886503E008686FF309008865886D02
:10045000704700008C260008014600208A6A8B69DC
:10046000CBB932B1012A0DD0022A03D0032A10D110
:100470000EE000BFCB6A03F08073B3F1807F00D140
:10048000012007E0CB6AB3F1C07F00D1012001E079
:1004900000E000BF34E08B69B3F5005F1AD132B1E0
:1004A000012A07D0022A03D0032A11D10AE000BF93
:1004B00001200EE0CB6A03F08073B3F1807F00D19E
:1004C000012006E0CB6AB3F1C07F00D1012000E03B
:1004D00000BF15E032B1012A05D0022A04D0032A58
:1004E0000CD103E000BF00BF012008E0CB6A03F09D
:1004F0008073B3F1807F00D1012000E000BF00BF16
:1005000070477047704700002DE9F0410446002510
:1005100000F084F9074614B90120BDE8F081606A53
:1005200000B100BF00BF002084F8340000BF0220EB
:1005300084F835002068006820F001002168086018
:100540000AE000F06BF9C01B052805D92020606582
:10055000032084F83500E0E72068006800F001001F
:100560000028EED12068056821480540D4E9010142
:100570000843E16808432169084361690843A169A8
:100580000843E1690843216A08430543606A042877
:1005900003D1D4E90B0108430543206805602068B6
:1005A000456925F00705606A0543606A04280DD196
:1005B000A06A0543E06A48B12046FFF74DFF28B125
:1005C00040206065012084F83500A6E72068456179
:1005D0002046FFF727FF064694F85C103F2088402E
:1005E000B06000206065012084F83500002094E7A9
:1005F0003F8010F070B5044600F010F9064625461D
:10060000681C10B104480078054400BF00F006F9EA
:10061000801BA842FAD370BD0C000020F8B502463A
:100620000B460025002400200021DCE0012606FA0C
:1006300001F51E6806EA0504AC4273D15E68022E1D
:1006400002D05E68122E13D1CF0802F1200656F8B0
:1006500027004E07F70E0F26BE40B0434F07FF0E90
:100660001E69BE403043CF0802F1200646F827003D
:1006700010684F000326BE40B0431E7906F0030603
:100680004F00BE40304310605E68012E08D05E68A7
:10069000022E05D05E68112E02D05E68122E13D194
:1006A00090684F000326BE40B0434F00DE68BE4056
:1006B00030439060506801268E40B0431E79C6F3E7
:1006C00000168E4030435060D0684F000326BE4075
:1006D000B0434F009E68BE403043D0605E6806F075
:1006E0008056B6F1805F7DD100BF00260096404E57
:1006F000366846F480463E4F3E603E46366806F415
:100700008046009600BF00BF3A4E8F0856F827007B
:100710008E07370F0F26BE40B043374EB24202D18C
:10072000002624E05EE0354EB24201D101261EE0F3
:10073000334EB24201D1022619E0324EB24201D10B
:10074000032614E0304EB24201D104260FE02F4EB2
:10075000B24201D105260AE02D4EB24201D1062651
:1007600005E02C4EB24201D1072600E008268F0793
:100770003F0FBE4030431F4E8F0846F82700264EDD
:100780003068A0435E6806F48036B6F5803F00D13D
:100790002043214E3060361D3068A0435E6806F469
:1007A0000036B6F5003F00D120431B4E361D3060A9
:1007B000361D3068A0435E6806F48016B6F5801FCB
:1007C00000D12043144E08363060361D3068A043F7
:1007D0005E6806F40016B6F5001F00D120430E4EE9
:1007E0000C363060491C1029FFF420AFF8BD000022
:1007F0004438024008380140000002400004024032
:1008000000080240000C02400010024000140240A8
:1008100000180240001C0240003C014001480068F2
:10082000704700000400002003480068034909786D
:100830000844014908607047040000200C000020B3
:1008400010B50D48006840F400700B490860084678
:10085000006840F4806008600846006840F48070DA
:100860000860032000F0A2F8002000F007F800F074
:100870002BF8002010BD0000003C024070B504467B
:100880000E4800784FF47A71B1FBF0F00C4909681A
:10089000B1FBF0F5284600F0FFFB08B1012070BD68
:1008A000102C07D200222146501E00F041F80548C6
:1008B000046001E00120F2E70020F0E70C000020D6
:1008C000100000200800002008B500BF00200090A4
:1008D0000E48006840F480400C49086008460068F3
:1008E00000F48040009000BF00BF00BF00200090D7
:1008F000081F006840F08050091F08600846006823
:1009000000F08050009000BF00BF08BD4438024096
:1009100001460846002809DB00F01F0301229A4027
:1009200043099B0003F1E023C3F8002100BF704797
:100930002DE9F05F80460D461646002701F056FD72
:10094000074639462A46334601F00700C0F1070A38
:10095000BAF1040F02D94FF0040A01E0C0F1070A0E
:10096000D14600F1040ABAF1070F02D24FF0000A93
:1009700001E0A0F1030AD4464FF0010A0AFA09FA8D
:10098000AAF1010A0AEA020A0AFA0CFA4FF0010B6C
:100990000BFA0CFBABF1010B0BEA030B4AEA0B045D
:1009A0002146404601F02AFDBDE8F09F00BF00F05F
:1009B0000702064B19684FF6FF031940044B0B431F
:1009C00043EA0221014B196000BF70470CED00E0C3
:1009D0000000FA0570B504460D460CB9012070BD43
:1009E0005848006800F00F00A84209D255490D7020
:1009F0000846006800F00F00A84201D00120EEE791
:100A0000207800F0020002281DD1207800F00400B8
:100A1000042805D14C48006840F4E0504A49086079
:100A2000207800F00800082805D14748006840F405
:100A30006040454908604448006820F0F000A16823
:100A4000084341490860207800F00100A8B36068BD
:100A5000012807D13C4808380068C0F34040B8B9C5
:100A60000120BCE76068022802D06068032807D133
:100A7000354808380068C0F3406048B90120AEE747
:100A8000314808380068C0F3400008B90120A6E7E3
:100A90002D48006820F00300616808432A49086077
:100AA000FFF7BCFE064609E0FFF7B8FE801B41F2E7
:100AB0008831884202D9032091E707E02248006884
:100AC00000F00C006168B0EB810FEDD11D480068AB
:100AD00000F00F00A84209D91A490D7008460068B5
:100AE00000F00F00A84201D0012078E7207800F044
:100AF0000400042807D11448006820F4E050E1689D
:100B0000084311490860207800F00800082808D13F
:100B10000D48006820F46040216940EAC1000A499C
:100B2000086000F03DF808490968C1F30311074A5D
:100B3000515CC840064908600020FFF79FFE002076
:100B40004DE70000003C02400838024094260008AF
:100B500010000020014800687047000010000020CD
:100B600000B5FFF7F7FF04490968C1F38221034A82
:100B7000515CC84000BD000008380240A4260008AF
:100B800000B5FFF7E7FF04490968C1F34231034AA2
:100B9000515CC84000BD000008380240A42600088F
:100BA0002DE9F047002400250026A14625480068CD
:100BB00000F00C0020B1042805D008283AD105E047
:100BC000DFF8849039E0DFF8849036E01D48001F9C
:100BD000006800F03F041B48001F006800F480001C
:100BE00078B11A481749091F0968C1F38811A0FB99
:100BF00001700146224600233846FFF735FB0546C3
:100C00000EE011480F49091F0968C1F38811A0FBC4
:100C100001700146224600233846FFF725FB0546B2
:100C20000848001F0068C0F30140401C4600B5FBA7
:100C3000F6F902E0DFF8109000BF00BF4846BDE8BB
:100C4000F0870000083802400024F400001BB700C1
:100C5000F8B504460CB90120F8BD207800F0010079
:100C6000002874D0F948006800F00C0004280DD06A
:100C7000F648006800F00C00082813D1F348001F64
:100C8000006800F48000B0F5800F0BD1EF48083801
:100C90000068C0F34040002859D06068002856D151
:100CA0000120D9E700BF6068B0F5803F08D1E74870
:100CB0000838006840F48030E449083908601EE0D4
:100CC0006068B0F5A02F0DD1E0480838006840F406
:100CD0008020DE49083908600846006840F480300A
:100CE00008600CE0D9480838006820F48030D74903
:100CF000083908600846006820F48020086000BFBA
:100D0000606890B1FFF78AFD054606E0FFF786FDB3
:100D1000401B642801D903209EE7CC4808380068AE
:100D2000C0F340400028F1D011E0FFF777FD054601
:100D300006E0FFF773FD401B642801D903208BE711
:100D4000C24808380068C0F340400028F1D120783C
:100D500000F0020002285FD1BC48006800F00C00DF
:100D600058B1BA48006800F00C0008281CD1B748F8
:100D7000001F006800F48000B0B9B448083800686B
:100D8000C0F3400020B1E068012801D0012063E7F2
:100D9000AE480838006820F0F800216940EAC10038
:100DA000AA490839086037E0E06800B30120A84983
:100DB0000860FFF733FD054606E0FFF72FFD401BF7
:100DC000022801D9032047E7A04808380068C0F38B
:100DD00040000028F1D09D480838006820F0F80055
:100DE000216940EAC10099490839086014E00020EF
:100DF00097490860FFF712FD054606E0FFF70EFD74
:100E0000401B022801D9032026E7904808380068D3
:100E1000C0F340000028F1D1207800F00800082835
:100E20002CD16069A8B101208A490860FFF7F6FC5F
:100E3000054606E0FFF7F2FC401B022801D903201B
:100E40000AE782486C300068C0F340000028F1D007
:100E500014E000207F490860FFF7E0FC054606E04B
:100E6000FFF7DCFC401B022801D90320F4E6774899
:100E70006C300068C0F340000028F1D1207800F009
:100E80000400042870D1002670483830006800F053
:100E9000805090B900BF002000906C483830006846
:100EA00040F080506949383108600846006800F019
:100EB0008050009000BF00BF01266748006800F422
:100EC0008070B0B96448006840F48070624908607E
:100ED000FFF7A4FC054606E0FFF7A0FC401B022834
:100EE00001D90320B8E65C48006800F4807000284F
:100EF000F2D000BFA068012808D1544868300068CB
:100F000040F001005149683108601DE0A0680528E3
:100F10000DD14E486830006840F004004B496831FC
:100F200008600846006840F0010008600CE047488F
:100F30006830006820F001004449683108600846C4
:100F4000006820F00400086000BFA068A8B1FFF7A7
:100F500065FC054609E0FFF761FC401B41F2883162
:100F6000884202D9032077E626E0384868300068D6
:100F7000C0F340000028EED013E0FFF74FFC054619
:100F800008E0FFF74BFC401B41F28831884201D951
:100F9000032061E62D4868300068C0F34000002857
:100FA000EFD1012E07D129483830006820F0805059
:100FB00026493831086000BFA069B8B323480068EB
:100FC00000F00C0008285ED0A069022846D100205D
:100FD0001F490866FFF722FC054606E0FFF71EFCE6
:100FE000401B022801D9032036E61848083800685B
:100FF000C0F340600028F1D1D4E907010843616AD9
:1010000040EA81110122A06AC2EB500041EA00418E
:101010002C20005D41EA00600C49091F0860012096
:101020000B490866FFF7FAFB054607E02DE0FFF7DE
:10103000F5FB401B022801D903200DE603480838C0
:101040000068C0F340600028F1D01EE0083802407C
:1010500000004742800E47420070004000200C49CB
:101060000866FFF7DBFB054606E0FFF7D7FB401BF2
:10107000022801D90320EFE506480068C0F340606C
:101080000028F2D101E00120E6E50020E4E50000BF
:10109000000047420038024070B504462546681EED
:1010A000B0F1807F01D301200FE0681E4FF0E021F6
:1010B00048610F214FF0FF3001F0A0F900204FF000
:1010C000E021886107200861002070BD10B503464B
:1010D000002200BF93F83C00012801D1022010BD7E
:1010E000012083F83C0000BF22F0FF00CC6840EAFA
:1010F000040222F440708C6840EA040222F480600A
:101100004C6840EA040222F400600C6840EA0402E1
:1011100022F480500C6940EA040222F400504C6929
:1011200040EA040222F48040CC6940EA04021868D4
:10113000426400BF002083F83C0000BF00BFCEE740
:1011400010B5024600BF92F83C00012801D10220F0
:1011500010BD012082F83C0000BF022082F83D0053
:10116000106843681068846823F0700308680343BC
:1011700024F0800448680443106843601068846069
:10118000012082F83D0000BF002082F83C0000BF33
:1011900000BFDDE710B504460CB9012010BD94F87E
:1011A0003D0028B9002084F83C00204600F00CF8EF
:1011B000022084F83D00211D206800F039FD012047
:1011C00084F83D000020E9E708B5144A016891421F
:1011D0000FD100BF002100911149096841F00101C0
:1011E0000F4A11601146096801F00101009100BF2A
:1011F00013E00C4A016891420FD100BF0021009119
:101200000749096841F00201054A11601146096861
:1012100001F00201009100BF00BF08BD00000140C5
:1012200044380240000401400146022081F83D009C
:101230000868806800F00702062A05D00868006880
:1012400040F001000B681860012081F83D0000208B
:1012500070472DE9F04104460D4600BF94F83C006C
:10126000012802D10220BDE8F081012084F83C0071
:1012700000BF022084F83D002068866826F07706CB
:1012800026F47F46206886602868502833D00CDC1E
:10129000202850D004DC00284BD0102851D149E040
:1012A000302849D040284CD139E060282DD0702812
:1012B00007D0B0F5805F03D0B0F5005F41D10DE0FD
:1012C00040E0D5E902136A68206800F02EFD20682E
:1012D000866846F077062068866033E0D5E9021319
:1012E0006A68206800F021FD2068806840F4804032
:1012F0002168886026E0EA686968206800F006FED8
:101300005021206800F01CFD1CE0EA686968206834
:1013100000F00FFE6021206800F012FD12E0EA6884
:101320006968206800F0F2FD4021206800F008FDA7
:1013300008E000BF00BF00BF2968206800F000FD82
:1013400000E000BF00BF012084F83D0000BF002086
:1013500084F83C0000BF00BF85E7000010B586B0F0
:101360000446142101A8FEF7F6FF39492068884297
:101370001FD100BF002000903648006840F01000E8
:10138000344908600846006800F01000009000BF73
:1013900000BF4FF4D440019002200290012003903E
:1013A000022004900120059001A92B48FFF736F98F
:1013B0004BE02A492068884247D100BF00200090B6
:1013C0002448006840F4807022490860084600689C
:1013D00000F48070009000BF00BF00BF00200090AC
:1013E0000846006840F0040008600846006800F005
:1013F0000400009000BF00BF8020019002200290F6
:101400000020039004900320059001A91448FFF7E1
:1014100005F9402001900220029001200390022053
:1014200004900320059001A90D48FFF7F7F840202C
:1014300001900220029001200390022004900320DA
:10144000059001A90748FFF7E9F806B010BD0000B4
:10145000000001403038024000100240000401400A
:10146000002002400008024070B504460D461646B2
:1014700000BF94F83C00012801D1022070BD01207A
:1014800084F83C0000BF022084F83D0036B1042EF1
:101490001BD0082E31D00C2E5ED145E029462068A5
:1014A00000F058FC2068806940F0080021688861DD
:1014B0002068806920F004002168886120688069C4
:1014C000296908432168886147E02946206800F0BF
:1014D00079FC2068806940F4006021688861206898
:1014E000806920F4806021688861206880692969AA
:1014F00040EA0120216888612FE02946206800F039
:101500009FFC2068C06940F008002168C86120681D
:10151000C06920F004002168C8612068C069296999
:1015200008432168C86118E02946206800F0C4FC1F
:101530002068C06940F400602168C8612068C06903
:1015400020F480602168C8612068C069296940EA88
:1015500001202168C86100E000BF00BF012084F8BD
:101560003D0000BF002084F83C0000BF00BF85E7BD
:1015700010B504460CB9012010BD94F83D0028B9FF
:10158000002084F83C00204600F00CF8022084F88B
:101590003D00211D206800F04BFB012084F83D0038
:1015A0000020E9E77047000070B504460E460122AE
:1015B0003146206800F0A8FB0F492068884203D01C
:1015C0000E492068884201D1012000E0002028B1A6
:1015D0002068406C40F400402168486420688068BE
:1015E00000F00705062D05D02068006840F00100D6
:1015F00021680860002070BD000001400004014027
:1016000010B504460CB9012010BDA06900B100E07E
:1016100000BF94F8390028B9002084F8380020462B
:1016200000F028F8242084F839002068C06820F4ED
:1016300000502168C860204600F090FC20680069D6
:1016400020F49040216808612068406920F02A0059
:10165000216848612068C06840F400502168C86073
:101660000020E063202084F8390084F83A0000204C
:10167000CAE7000010B586B00446142101A8FEF7A1
:101680006AFE2E492068884255D100BF0020009094
:101690002B48006840F4802029490860084600680B
:1016A00000F48020009000BF00BF00BF0020009029
:1016B00023481038006840F00400214910390860C0
:1016C0000846006800F00400009000BF00BF4FF41F
:1016D00040600190022002900120039003200490BA
:1016E0000720059001A91748FEF798FF16481749EB
:1016F00008604FF000604860002114488160C160BC
:101700004FF480610161002141618161C161016229
:101710004162FEF7F9FE08B1FEF7F4FE00BF0B4888
:101720006063846300BF002211462720FFF700F9A1
:101730002720FFF7EDF806B010BD0000004800407C
:10174000403802400008024028600240D8000020D3
:1017500000BFFEE708B500BF002000900A480068FF
:1017600040F40010084908600846006800F40010C2
:10177000009000BF00BF002211460C20FFF7D8F8F0
:101780000C20FFF7C5F808BD3038024008B500BF8F
:10179000002000902448006840F0010022490860C1
:1017A0000846006800F00100009000BF00BF00BFC5
:1017B000002000900846006840F0040008600846D9
:1017C000006800F00400009000BF00BF00BF0020D0
:1017D00000900846006840F4807008600846006881
:1017E00000F48070009000BF00BF00BF0020009098
:1017F0000846006840F0800008600846006800F075
:101800008000009000BF00BF00BF0020009008468D
:10181000006840F0100008600846006800F0100002
:10182000009000BF00BF08BD3038024000B595B041
:10183000002011901290139014900F9010901C2182
:1018400008A8FEF788FD20216846FEF784FD384889
:1018500038490860A720486000213648816044F676
:101860001F61C1600021016141618161FFF792FC4C
:1018700008B1FEF747FE4FF48050119011A92D4892
:10188000FFF7E7FC08B1FEF73DFE2A48FFF770FEC0
:1018900008B1FEF737FE00200F9010900FA92548E1
:1018A000FFF74EFC08B1FEF72DFE602008904FF4C4
:1018B000FA60099000200A900B900C900D900E9009
:1018C000002208A91B48FFF7CFFD08B1FEF71AFE5A
:1018D000042208A91748FFF7C7FD08B1FEF712FE5A
:1018E000082208A91348FFF7BFFD08B1FEF70AFE5A
:1018F0000C2208A90F48FFF7B7FD08B1FEF702FE5A
:101900000020009001900290039004904FF400504A
:1019100005900020079069460648FFF7D7FB08B1FD
:10192000FEF7F0FD0348FFF719FD15B000BD0000FC
:10193000000001401800002000B595B00020119073
:101940001290139014900F9010901C2108A8FEF78D
:1019500002FD20216846FEF7FEFC34483449086049
:10196000A720486000213248816044F61F61C160B1
:101970000021016141618161FFF70CFC08B1FEF7B4
:10198000C1FD4FF48050119011A92948FFF761FC67
:1019900008B1FEF7B7FD2648FFF7EAFD08B1FEF7EC
:1019A000B1FD00200F9010900FA92148FFF7C8FB50
:1019B00008B1FEF7A7FD602008904FF4FA60099087
:1019C00000200A900B900C900D900E90002208A918
:1019D0001748FFF749FD08B1FEF794FD042208A956
:1019E0001348FFF741FD08B1FEF78CFD082208A956
:1019F0000F48FFF739FD08B1FEF784FD0020009085
:101A000001900290039004904FF400500590002044
:101A1000079069460648FFF759FB08B1FEF772FDCB
:101A20000348FFF79BFC15B000BD00000004014017
:101A30005800002010B50A480A4908600A48486062
:101A4000002108488160C16001610C2141610021D1
:101A50008161C161FFF7D4FD08B1FEF753FD10BDF0
:101A60000048004098000020A086010000BFFEE76B
:101A70007047000010B5234B1B685B6943F04003BF
:101A8000204C246863611F4B1B68DB6843F0100324
:101A90001C4C2468E3601C4B1B681B6823F001038B
:101AA000194C2468236007E0174B1B681B6823F060
:101AB0000103154C24682360134B1B681B6803F05B
:101AC0000103002BF0D1114B0F4C2468A3600E4B87
:101AD0001B68D8600C4B1B6819610B4B1B685A6064
:101AE000094B1B681B6843F48023074C2468236060
:101AF000054B1B681B6843F00103034C24682360FB
:101B000010BD000098000020D800002004480040CC
:101B100010B5FEF789FE10BD00B593B0302107A8BF
:101B2000FEF719FC142102A8FEF715FC00BF0020E7
:101B300001902448006840F080502249086008461F
:101B4000006800F08050019000BF00BF00BF00207F
:101B500001901D48006840F480401B490860084619
:101B6000006800F48040019000BF00BF0120079092
:101B70000004089002200D9041050E9106210F915E
:101B8000A8211091022111910721129107A8FFF7B6
:101B90005FF808B1FEF7B6FC0F2002900220039018
:101BA000002004904FF4A05005904FF48050069010
:101BB000052102A8FEF70EFF08B1FEF7A3FC13B043
:101BC00000BD00004038024000700040144800682A
:101BD00040F47000124908601248006840F00100AB
:101BE0001049086000200F49083108600D4800685E
:101BF0000D4908400B4908600C48091D0860081F82
:101C0000006820F48020091F0860002005490C317D
:101C100008604FF00060024980390860704700009A
:101C200088ED00E000380240FFFFF6FE103000248F
:101C300010B50268294B98420ED0B0F1804F0BD0FE
:101C4000274B984208D0274B984205D0264B984204
:101C500002D0264B984203D122F070024B681A43FF
:101C60001E4B984220D0B0F1804F1DD01C4B9842A3
:101C70001AD01C4B984217D01B4B984214D01B4BC8
:101C8000984211D01A4B98420ED01A4B98420BD062
:101C9000194B984208D0194B984205D0184B9842DE
:101CA00002D0184B984203D122F44072CB681A43F9
:101CB00022F080034C6943EA040202608B68C3622D
:101CC0000B688362054B984202D0084B984201D1C1
:101CD0000B6903630123436110BD00000000014054
:101CE0000004004000080040000C004000040140D7
:101CF00000400140004401400048014000180040FD
:101D0000001C00400020004030B501F01F050124F8
:101D100004FA05F3046A9C430462046A01F01F0597
:101D200002FA05F52C43046230BD30B50C468168DB
:101D300021F47F4142EA032525432943816030BDD8
:101D40000A46816821F0700142F00703194381605F
:101D50007047000030B5056A25F001050562026A8A
:101D60004368846924F0700424F003040D682C4354
:101D700022F002028D682A43104DA84200D103E0F0
:101D80000F4DA84206D100BF22F00802CD682A43B9
:101D900022F00402094DA84202D0094DA84207D101
:101DA00023F4807323F400734D692B438D692B4317
:101DB000436084614D684563026230BD00000140AC
:101DC0000004014030B5056A25F010050562026A7D
:101DD0004368846924F4E04424F440740D6844EAC0
:101DE000052422F020028D6842EA0512124DA84215
:101DF00000D103E0114DA84207D100BF22F08002BC
:101E0000CD6842EA051222F040020B4DA84202D0F2
:101E10000A4DA84209D123F4806323F400634D697D
:101E200043EA85038D6943EA8503436084614D6815
:101E30008563026230BD00000000014000040140E3
:101E400030B5056A25F480750562026A4368C46985
:101E500024F0700424F003040D682C4322F4007273
:101E60008D6842EA0522124DA84200D103E0114DCF
:101E7000A84207D100BF22F40062CD6842EA0522E1
:101E800022F480620A4DA84202D00A4DA84209D12C
:101E900023F4805323F400534D6943EA05138D69FD
:101EA00043EA05134360C4614D68C563026230BDF7
:101EB000000001400004014030B5056A25F480555A
:101EC0000562036A4468C26922F4E04222F4407267
:101ED0000D6842EA052223F400538D6843EA053376
:101EE000084DA84202D0084DA84204D124F48044F1
:101EF0004D6944EA85144460C2614D68056403621B
:101F000030BD0000000001400004014030B50B4628
:101F10001446026A056A25F001050562816921F00F
:101F2000F00141EA041122F00A021A4381610262BF
:101F300030BD30B50B461446056A25F01005056224
:101F40008169026A21F4704141EA043122F0A00261
:101F500042EA03128161026230BD00002DE9F041C6
:101F600004462068006920F44050E1680843216875
:101F700008612169A068084361690843E16940EA92
:101F800001052068C06849F20C6188432843216834
:101F9000C8602068406920F44070A1690843216846
:101FA0004861E069B0F5004F7ED1C449206888429D
:101FB00003D0C349206888425DD1FEF7E1FD00EB04
:101FC000C00101EB001061684900B0FBF1F0642131
:101FD000B0FBF1F00601FEF7D3FD00EBC00101EB11
:101FE000001061684900B0FBF1F7FEF7C9FD00EB96
:101FF000C00101EB001061684900B0FBF1F0642101
:10200000B0FBF1F000EBC00101EB0010A7EB80008A
:10201000322101EBC0006421B0FBF1F000F0F800C8
:1020200006EB4006FEF7ACFD00EBC00101EB001033
:1020300061684900B0FBF1F7FEF7A2FD00EBC001BB
:1020400001EB001061684900B0FBF1F06421B0FBC6
:10205000F1F000EBC00101EB0010A7EB8000322192
:1020600001EBC0006421B0FBF1F000F00700304448
:102070002168886020E1FEF773FD00EBC00101EBF1
:10208000001061684900B0FBF1F06421B0FBF1F091
:102090000601FEF765FD00EBC00101EB0010616871
:1020A0004900B0FBF1F700E045E0FEF759FD00EB19
:1020B000C00101EB001061684900B0FBF1F0642140
:1020C000B0FBF1F000EBC00101EB0010A7EB8000CA
:1020D000322101EBC0006421B0FBF1F000F0F80008
:1020E00006EB4006FEF73CFD00EBC00101EB0010E3
:1020F00061684900B0FBF1F7FEF732FD00EBC0016B
:1021000001EB001061684900B0FBF1F06421B0FB05
:10211000F1F000EBC00101EB0010A7EB80003221D1
:1021200001EBC0006421B0FBF1F000F00700304487
:1021300021688860C0E061492068884203D0604916
:10214000206888425CD1FEF71BFD00EBC00101EB6B
:10215000001061688900B0FBF1F6FEF711FD00EB9D
:10216000C00101EB001061688900B0FBF1F064214F
:10217000B0FBF1F000EBC00101EB0010A6EB80001A
:10218000322101EB00106421B0FBF1F000F0F00609
:10219000FEF7F6FC00EBC00101EB0010616889005E
:1021A000B0FBF1F06421B0FBF1F006EB0016FEF796
:1021B000E7FC00EBC00101EB001061688900B0FB97
:1021C000F1F7FEF7DDFC00EBC00101EB00106168E8
:1021D0008900B0FBF1F06421B0FBF1F000EBC0012D
:1021E00001EB0010A7EB8000322101EB001064210D
:1021F000B0FBF1F000F00F003044216888605BE034
:10220000FEF7AEFC00EBC00101EB00106168890035
:10221000B0FBF1F6FEF7A4FC00EBC00101EB0010EF
:1022200061688900B0FBF1F06421B0FBF1F000EBD4
:10223000C00101EB0010A6EB8000322101EB001081
:102240006421B0FBF1F000F0F006FEF789FC00EB32
:10225000C00101EB001061688900B0FBF1F064215E
:10226000B0FBF1F006EB0016FEF77AFC00EBC001C4
:1022700001EB001061688900B0FBF1F7FEF770FC1C
:1022800000EBC00101EB001061688900B0FBF1F0C8
:102290006421B0FBF1F000EBC00101EB0010A7EBF3
:1022A0008000322101EB00106421B0FBF1F000F05E
:1022B0000F00304421688860BDE8F08100100140C3
:1022C0000014014008B541480068006800F0200093
:1022D00060B100BF002000903C480068006800909A
:1022E0003A4800684068009000BF6EE038480068D7
:1022F00000F01000002868D000BF00200090334894
:10230000006800680090314800684068009000BF95
:1023100000BF30480068006800F4002058BB2D481A
:102320000068006820F001002A490968086029480F
:1023300000684068C0F1240027490880242025490E
:102340000968486023480068006840F4002021497B
:10235000096808601F480068006840F001001D49D6
:10236000096808601C48008812282ED11B491C48A7
:1023700000F01AF929E017480068006820F0010011
:10238000144909680860134800684068C0F12400D7
:102390001149088024200F49096848601148806A63
:1023A00020F400200F4988620A480068006840F065
:1023B000010008490968086007480088122804D10C
:1023C00006490748243000F0EFF808BD98000020C7
:1023D00000480040D80000201400002038010020F0
:1023E0004E0100200060024000BFFEE70248006886
:1023F000C0F30220704700000CED00E010B500288B
:1024000004DB0A07130E054A135406E00A07140EEC
:10241000034A00F00F031B1FD45410BD00E400E07A
:1024200018ED00E04FF47A700A49096848630949D9
:102430000968886307490968C86306490968086428
:1024400005490968486304490968886302490968BD
:10245000C863704718000020580000200A49096826
:10246000486309490968886307490968C8630649D8
:10247000096808640549096848630449096888636C
:1024800002490968C86370471800002058000020FE
:1024900000487047380100202DED028BFEF7D0F97F
:1024A000FFF73AFBFFF772F9FFF754F9FFF7C2FAAB
:1024B000FFF742FAFFF7BAF93248FEF7B5FE0021FE
:1024C0003048FFF771F804212E48FFF76DF8082116
:1024D0002C48FFF769F800212A48FFF765F82A48D9
:1024E000FEF7A2FE00212848FFF75EF804212648E7
:1024F000FFF75AF808212448FFF756F800F04AF889
:10250000FFF790FFFFF7C4FF204908606420FEF743
:1025100071F80FE04FF4FA60FFF7A0FF1B48006866
:10252000B0F90200B0F5167F04DD4FF47A70FFF7C2
:1025300095FF04E015480068807A0128EAD000BFC2
:102540001EE012480068B0F90600002804DD0F48BC
:102550000068B0F9060000E0002000EE100AB8EEB6
:10256000C00ADFED0B0A30EE208ABCEEC80A10EE7E
:10257000101A88B2FFF772FF6420FEF73BF800BF25
:10258000DFE70000180000205800002000000020B5
:1025900000007A4410B524220249A1F12400FFF77B
:1025A00069FA10BD7201002000B101B970470278CC
:1025B000437842EA0322C2F30A020A804278D21028
:1025C000837842EA4312C2F30A024A808278921167
:1025D000C37842EA8302037942EA8322C2F30A0201
:1025E0008A8002795210437942EAC312C2F30A0286
:1025F000CA804279C2F301128A7242791211930899
:10260000CB728279C37942EA032212B28A81027ABA
:10261000437A42EA032213B201F10C02CB81827A9F
:10262000C37A42EA032213B201F10C020B82037B4C
:102630008B74437BCB74827BC37B42EA03228A8206
:10264000027C437C42EA032212B20A810A88A2F584
:10265000806212B20A804A88A2F5806212B24A8071
:102660008A88A2F5806212B28A80CA88A2F5806246
:1026700012B2CA800A89A2F5806212B20A8100BF32
:1026800094E74FF04070E1EE100A70470006101614
:102690000006101600000000000000000102030404
:1026A000060708090000000001020304CC26000808
:1026B0000000002018000000C4010008E426000803
:1026C00018000020E0410000E001000800000000C8
:1026D0000000000010000000010000000024F400D1
:0426E00000000000F6
:040000050800018965
:00000001FF
