:020000040800F2
:100000007807002029020008651200085111000835
:10001000611200081F0400088D180008000000008D
:1000200000000000000000000000000005130008B0
:10003000D70400080000000067120008071300083A
:10004000430200084302000843020008430200087C
:10005000430200084302000843020008430200086C
:10006000430200084302000843020008430200085C
:10007000430200084302000843020008430200084C
:10008000430200084302000843020008430200083C
:10009000430200084302000843020008430200082C
:1000A000430200084302000843020008430200081C
:1000B000430200084302000843020008430200080C
:1000C00043020008430200084302000843020008FC
:1000D00043020008430200084302000869170008B1
:1000E00043020008430200084302000843020008DC
:1000F00043020008430200084302000843020008CC
:1001000043020008430200084302000843020008BB
:1001100043020008430200084302000843020008AB
:10012000430200084302000843020008430200089B
:10013000430200084302000843020008430200088B
:10014000430200084302000843020008430200087B
:10015000430200084302000843020008430200086B
:10016000430200084302000843020008430200085B
:100170004302000843020008430200080000000098
:10018000430200084302000800F002F800F03CF8C7
:100190000AA090E8000C82448344AAF10107DA45E2
:1001A00001D100F031F8AFF2090EBAE80F0013F0F8
:1001B000010F18BFFB1A43F001031847081800008D
:1001C00028180000103A24BF78C878C1FAD852071E
:1001D00024BF30C830C144BF04680C6070470000C1
:1001E0000023002400250026103A28BF78C1FBD840
:1001F000520728BF30C148BF0B6070471FB501F0E0
:10020000CCFB1FBD10B510BD00F0CFF81146FFF7B5
:10021000F5FF01F03DFB00F0EDF803B4FFF7F2FF4E
:1002200003BC00F0F5F80000094880470948004782
:10023000FEE7FEE7FEE7FEE7FEE7FEE7FEE7FEE796
:10024000FEE7FEE704480549054A064B70470000F3
:10025000C5130008890100087801002078070020F4
:10026000780300207803002053EA020C00F0698034
:100270002DE9F04B4FF00006002B1FBFB3FA83F5BA
:1002800003FA05F424FA05F65E4012BF1643B2FAEB
:1002900082F502FA05F4C5F120051EBF22FA05FC1D
:1002A00044EA0C04203556EA044C4FEA144418BFC3
:1002B000641C4FF000084FF00009904271EB030CF2
:1002C00039D3002919BFB1FA81F701FA07F6B0FA5C
:1002D00080F700FA07F6C7F120071EBF20FA07FCD7
:1002E00046EA0C062037B6FBF4FCA7EB0507103FE7
:1002F00007F01F0BCBF120060CFA0BFB2CFA06F6CD
:1003000044BFB3460026202FA4BF5E464FF0000B2B
:100310005BEA060C08BF4FF0010B19EB0B09ABFBB6
:10032000027C48EB0608C01B06FB02CC0BFB03CC8F
:1003300071EB0C01C1E70B46024641464846BDE859
:10034000F08B13B54FF000004FF00001AFF30080C9
:10035000BDE81C4070474FF0000200B513469446BC
:100360009646203922BFA0E80C50A0E80C50B1F10D
:100370002001BFF4F7AF090728BFA0E80C5048BF21
:100380000CC05DF804EB890028BF40F8042B08BFBF
:10039000704748BF20F8022B11F0804F18BF00F8BB
:1003A000012B7047704770477047754600F02CF876
:1003B000AE4605006946534620F00700854618B052
:1003C00020B5FFF73FFFBDE820404FF000064FF09B
:1003D00000074FF000084FF0000B21F00701AC467A
:1003E000ACE8C009ACE8C009ACE8C009ACE8C00999
:1003F0008D46704710B50446AFF300802046BDE837
:100400001040FFF70ABF00000048704714010020A9
:1004100001491820ABBEFEE726000200704700BF6E
:10042000FEE7000001680A4BCAB2103AA3FB023291
:100430001209084B9B5CC365032A04D96FF30901B9
:10044000091D816502E06FF309018165806D7047C8
:10045000ABAAAAAABC190008014600208A6A8B69C7
:10046000002B0FD0B3F5005F1DD08AB3012A30D026
:10047000022A2ED0032A04D1C96A11F0807F00D04D
:10048000012070471AB1012A07D0022AF9D1C96A9E
:1004900011F0807FF5D001207047C96AB1F1C07FAB
:1004A000FAD1012070475AB1012A0BD0022A07D095
:1004B000032AF7D1C96AB1F1C07FF3D10120704797
:1004C00001207047C96A11F0807FFAD0012070477F
:1004D000FFE7012070477047704700002DE9F041A9
:1004E000044600F087F90546DCB1002684F8346044
:1004F000022084F835002068016821F001010160C4
:100500002068006810F0010F13D000F073F9401B51
:10051000052809D920206065032084F83500BDE84E
:10052000F0810120BDE8F0812068006810F0010F23
:10053000EBD121680868234A1040A3686268D4F8A8
:1005400010C01A43E36843EA0C031A4363691A4371
:10055000A3691A43E3691A43236A1A431043626A80
:10056000042A03D1236BE26A1A431043086020680F
:10057000406920F00701606A40EA0105012704286C
:100580000ED1A06A0543E06A50B12046FFF764FF30
:1005900030B14020606584F835700120BDE8F081FD
:1005A000206845612046FFF73DFF94F85C103F222C
:1005B00002FA01F18160666584F835700020BDE8BB
:1005C000F08100003F8010F02DE9F84F0022DFF8A5
:1005D0000082DFF80092DFF800A24FF0030E0F2731
:1005E000012303FA02F50B682B40AB427DD1D1F811
:1005F00004C0BCF1020F02D0BCF1120F12D14FEABD
:10060000D20C00EB8C0CDCF820605407E40E07FAE7
:1006100004FB26EA0B06D1F810B00BFA04F43443BD
:10062000CCF8204006684FEA420C0EFA0CF4A643C0
:1006300091F804B00BF0030B0BFA0CFB4BEA060627
:1006400006604E68012E05D0022E03D0112E01D077
:10065000122E11D18668A643D1F80CB00BFA0CFB10
:100660004BEA06068660466826EA05050E79C6F35B
:100670000016964035434560C56825EA04048D6838
:1006800005FA0CFC4CEA040CC0F80CC0D1F804C00C
:100690001CF0805F7DD0D8F800C04CF4804CC8F8C6
:1006A00000C0D8F800C00CF4804CCDF800C022F097
:1006B000030C0CF1804404F59834D4F808C895076D
:1006C0002D0F07FA05F62CEA0606A0F1804CBCF5C2
:1006D000003C64D0A0F1804CBCF5013C62D0A0F19C
:1006E000804CBCF5023C60D000E052E0A0F1804CB0
:1006F000BCF5033C5CD0A0F1804CBCF5043C5AD066
:10070000A0F1804CBCF5053C58D0A0F1804CBCF564
:10071000063C56D0A0F1804CBCF5073C54D04FF0BD
:10072000080C0CFA05FC4CEA060CC4F808C8D9F809
:1007300000C02CEA030C4C6814F4803F01D04CEA52
:10074000030CC9F800C0254CD4F800C02CEA030CF7
:100750004D6815F4003F01D04CEA030CC4F800C00A
:10076000DAF800C02CEA030C4C6814F4801F01D0A6
:100770004CEA030CCAF800C0194CD4F800C02CEAAB
:10078000030C4D6815F4001F01D04CEA030CC4F8AB
:1007900000C0521C102AFFF423AFBDE8F88F4FF0C1
:1007A000000CBEE74FF0010CBBE74FF0020CB8E7BE
:1007B0004FF0030CB5E74FF0040CB2E74FF0050C17
:1007C000AFE74FF0060CACE74FF0070CA9E70000CD
:1007D00044380240003C0140083C0140043C0140D8
:1007E0000C3C0140002A01D08161704709048161FD
:1007F0007047000001488068704700000800002032
:100800000248816802781144816070470800002026
:1008100010B50B48016841F400710160016841F4B2
:1008200080610160016841F480710160032000F083
:1008300091F8002000F006F800F026F8002010BD26
:10084000003C024070B504460D4D4FF47A71287893
:10085000B1FBF0F00B490968B1FBF0F000F0C0FB10
:1008600008B1012070BD102C07D200222146501E75
:1008700000F03CF86C60002070BD012070BD0000ED
:10088000080000200000002008B500BF00200090F4
:100890000E48006840F480400C4908600846006833
:1008A00000F48040009000BF00BF00BF0020009017
:1008B000081F006840F08050091F08600846006863
:1008C00000F08050009000BF00BF08BD44380240D7
:1008D00000280ADB00F01F01012202FA01F14009A1
:1008E000800000F1E020C0F80011704710B4184BF0
:1008F0001B68C3F30223C3F1070CBCF1040F01D939
:100900004FF0040C1C1D072C01D2002300E0DB1E5D
:10091000012404FA0CFCACF1010C0CEA0101994031
:1009200004FA03F35B1E1A401143002806DB00F1B2
:10093000E020090180F8001410BC704700F00F009F
:1009400000F1E020090180F8141D10BC7047000080
:100950000CED00E000F00700064A11684FF6FF03B7
:10096000194041EA002040F0FD7040F080601060C6
:10097000704700000CED00E02DE9F04704460D46FD
:10098000002C13D0DFF85091D9F80000EFB200F03E
:100990000F00A8420DD289F80070D9F8000000F0CD
:1009A0000F00A84205D00120BDE8F0870120BDE876
:1009B000F0872068494E10F0020F14D010F0040F99
:1009C00003D0306840F4E0503060207810F0080F19
:1009D00003D0306840F4604030603068A16820F097
:1009E000F00008433060207810F0010F3ED06068BE
:1009F0003B49012808D002280DD003280BD00968F4
:100A000011F0020F28D00AE0096811F4003F06D166
:100A10000120BDE8F087096811F0007F19D0316826
:100A200021F0030108433060FFF7E4FE80463068A0
:100A3000616800F00C00B0EB810F17D041F2883AEA
:100A4000FFF7D8FEA0EB0800504508D90320BDE809
:100A5000F0870120BDE8F0870120BDE8F08730680D
:100A6000616800F00C00B0EB810FE9D1D9F800000B
:100A700000F00F00A8420AD989F80070D9F80000E8
:100A800000F00F00A84202D00120BDE8F0872078D6
:100A900010F0040F05D03068E16820F4E0500843FE
:100AA0003060207810F0080F06D03068216920F4FB
:100AB000604040EAC100306000F03EF83168094A09
:100AC000C1F30311515CC840074908600020FFF7DB
:100AD000B9FE0020BDE8F087003C02400838024023
:100AE00000380240A41900080000002001480068F6
:100AF000704700000000002000B5FFF7F7FF044931
:100B00000968044AC1F38221515CC84000BD00005D
:100B100008380240B419000800B5FFF7E7FF0449A0
:100B20000968044AC1F34231515CC84000BD00006D
:100B300008380240B419000810B51748006810F0D2
:100B40000C01164816D0164B042912D0082911D1D1
:100B5000144C216801F03F02216811F4800F0AD083
:100B60002068C0F38810A0FB03010023FFF77CFB83
:100B700009E0184610BD21680023C1F38811A1FBCC
:100B80000001FFF771FB2168C1F30141491C4900D5
:100B9000B0FBF1F010BD0000083802400024F40062
:100BA000001BB700043802402DE9F84F0446002C22
:100BB00010D02078FA4D10F0010F64D0F948016888
:100BC00001F00C0104290DD0006800F00C00082889
:100BD00003D011E00120BDE8F88FF348006810F45D
:100BE000800F09D0286810F4003F4CD060680028BE
:100BF00049D10120BDE8F88F6068B0F5803F14D07E
:100C0000B0F5A02F16D0286820F48030286028681E
:100C100020F480202860606810B3FFF7EBFD0646E3
:100C2000286810F4003F0ED02DE0286840F4803092
:100C30002860F0E7286840F480202860286840F4A5
:100C400080302860E7E7FFF7D5FD801B642802D9D4
:100C50000320BDE8F88F286810F4003FF3D012E0BD
:100C6000FFF7C8FD0646286810F4003F0BD0FFF7D9
:100C7000C1FD801B642802D90320BDE8F88F2868D5
:100C800010F4003FF3D12078C84F10F0020F4FF05E
:100C9000000856D0C348016811F00C0F15D0006849
:100CA00000F00C00082804D1BF48006810F4800F41
:100CB0000BD0E06878B301203860FFF79BFD064653
:100CC000286810F0020F12D01DE0286810F0020F03
:100CD00005D0E068012802D00120BDE8F88F28681F
:100CE000216920F0F80040EAC100286029E0FFF700
:100CF00081FD801B022802D90320BDE8F88F2868F7
:100D000010F0020FF3D02868216920F0F80040EAC3
:100D1000C100286015E0FFE7C7F80080FFF76AFD13
:100D20000646286810F0020F0BD0FFF763FD801B0A
:100D3000022802D90320BDE8F88F286810F0020FBE
:100D4000F3D1207810F0080F33D09948DFF864927F
:100D50006169B9B101210160FFF74CFD0646D9F880
:100D6000000010F0020F24D1FFF744FD801B022881
:100D700002D90320BDE8F88FD9F8000010F0020F67
:100D8000F2D016E0C0F80080FFF734FD0646D9F82F
:100D9000000010F0020F0CD0FFF72CFD801B022882
:100DA00002D90320BDE8F88FD9F8000010F0020F37
:100DB000F2D1207810F0040F73D04FF00009DFF863
:100DC000F8A1DAF8000010F0805F0CD1DAF800002A
:100DD00040F08050CAF80000DAF8000000F08050BF
:100DE00000904FF00109DFF8D4B1DBF8000010F4F7
:100DF000807F1AD1DBF8000040F48070CBF800004F
:100E0000FFF7F8FC0646DBF8000010F4807F0CD1F9
:100E1000FFF7F0FC801B022802D90320BDE8F88F01
:100E2000DBF8000010F4807FF2D0A068DFF890B10A
:100E3000012818D005281DD0DBF8000020F00100A3
:100E4000CBF80000DBF8000020F00400CBF8000035
:100E5000A06838B3FFF7CEFC0646DBF8000010F0C0
:100E6000020F14D03CE0DBF8000040F00100CBF8AA
:100E70000000EDE7DBF8000040F00400CBF80000D4
:100E8000DBF8000040F00100CBF80000E0E7FFF7DE
:100E9000B1FC811B41F28830814204D90320BDE8B6
:100EA000F88F26E005E0DBF8000010F0020FEED02E
:100EB00016E0FFF79FFC0646DBF8000010F0020F7B
:100EC0000ED0FFF797FC811B41F28830814202D996
:100ED0000320BDE8F88FDBF8000010F0020FF0D11E
:100EE000B9F1010F05D1DAF8000020F08050CAF8FE
:100EF0000000A069E8B32B49096801F00C0108293A
:100F00006BD0022810D0C7F86080FFF773FC04464E
:100F1000286810F0007F5ED0FFF76CFC001B0228F1
:100F200055D90320BDE8F88FC7F86080FFF762FC51
:100F30000646286810F0007F0BD0FFF75BFC801B93
:100F4000022802D90320BDE8F88F286810F0007F3E
:100F5000F3D1216AE069A26A0843616A4FF0FF3366
:100F6000890103EB520241EA0241084394F82C1034
:100F700000E030E040EA01610B4801600120386682
:100F8000FFF738FC0446286810F0007F23D1FFF7F4
:100F900031FC001B022815D90320BDE8F88F1CE0A6
:100FA000003802400838024004380240000047423E
:100FB000800E4742743802404038024000700040C2
:100FC00070380240286810F0007FE0D003E0286805
:100FD00010F0007FA0D10020DFE70120DDE7000056
:100FE000401EB0F1807F01D3012070474FF0E02117
:100FF0004861044AF02010700020886107200861D1
:101000000020704723ED00E070B50446002C04D0AA
:1010100094F83900002510B106E0012070BD84F875
:101020003850204600F022F8242084F83900206847
:10103000C16821F40051C160204600F0F5F9206834
:10104000016921F4904101612068416921F02A0180
:1010500041612068C16841F40051C160E56320200E
:1010600084F8390084F83A00002070BD10B586B0CD
:101070000446142101A8FFF76EF930492068884220
:101080005AD100BF002000902D48006840F4802015
:101090002B4908600846006800F48020009000BFDB
:1010A00000BF00BF0020009025481038006840F0C5
:1010B00004002349103908600846006800F0040065
:1010C000009000BF00BF4FF44060019002200290EA
:1010D00001200390032004900720059001A91948DE
:1010E000FFF772FA1848194908604FF0006048602D
:1010F000002116488160C1604FF4806101610021C8
:10110000416181614FF48071C1614FF440310162EE
:1011100000214162FFF7E2F908B1FFF7DDF900BFF6
:101120000A486063846300BF002211462720FFF74E
:10113000DDFB2720FFF7CCFB06B010BD00480040C8
:10114000403802400008024028600240540000205D
:1011500000BFFEE708B500BF002000900A48006805
:1011600040F40010084908600846006800F40010C8
:10117000009000BF00BF002211460C20FFF7B6FB15
:101180000C20FFF7A5FB08BD3038024000B587B042
:10119000142102A8FFF7DFF800BF002001901F48CC
:1011A000006840F001001D4908600846006800F032
:1011B0000100019000BF00BF00BF00200190084661
:1011C000006840F0040008600846006800F0040071
:1011D000019000BF00BF00BF0020019008460068DA
:1011E00040F0800008600846006800F08000019030
:1011F00000BF00BF01224FF4E0510948FFF7F2FAA7
:101200004FF4E050029001200390049002200590DA
:1012100002A90348FFF7D8F907B000BD30380240F3
:10122000001C024010B50B480B4908600B48486091
:10123000002109488160C1604FF48061016104218F
:10124000416100218161C161FFF7DEFE08B1FFF756
:1012500043F910BD0048004014000020A0860100A2
:1012600000BFFEE77047704710B5234B1B685B69F2
:1012700043F04003204C246863611F4B1B68DB680C
:1012800043F010031C4C2468E3601C4B1B681B6874
:1012900023F00103194C2468236007E0174B1B68F7
:1012A0001B6823F00103154C24682360134B1B6853
:1012B0001B6803F00103002BF0D1114B0F4C246885
:1012C000A3600E4B1B68D8600C4B1B6819610B4B5D
:1012D0001B685A60094B1B681B6843F48023074C4A
:1012E00024682360054B1B681B6843F00103034C13
:1012F0002468236010BD000014000020540000206A
:1013000004480040704710B5FFF77AFA10BD00009E
:1013100000B593B0302107A8FFF71DF8142102A8EB
:10132000FFF719F800BF002001902448006840F042
:101330008050224908600846006800F08050019003
:1013400000BF00BF00BF002001901D48006840F4AE
:1013500080401B4908600846006800F48040019006
:1013600000BF00BF012007900004089002200D90EC
:1013700041050E9106210F91A82110910221119192
:101380000421129107A8FFF70FFC08B1FFF7A4F89A
:101390000F20029002200390002004904FF4A050F0
:1013A00005904FF480500690052102A8FFF7E4FA5B
:1013B00008B1FFF791F813B000BD000040380240BB
:1013C000007000401448006840F470001249086042
:1013D0001248006840F001001049086000200F49E1
:1013E000083108600D4800680D4908400B49086045
:1013F0000C48091D0860081F006820F48020091FA0
:101400000860002005490C3108604FF00060024977
:10141000803908607047000088ED00E00038024025
:10142000FFFFF6FE103000242DE9F041044620684D
:101430000169E26821F44051114301612169A0680A
:10144000E26908436169114301432068C26822F4DC
:10145000037222F414421143C16020684169A269F9
:1014600021F4407111434161E069BC4ABC49BD4D62
:101470003226B0F5004F5ED02068884202D09042FC
:1014800040F01281FFF748FB00EBC00101EB0010B8
:1014900061688900B0FBF1F7FFF73EFB00EBC0018C
:1014A00001EB001061688900B0FBF1F0A5FB0010B2
:1014B00040096FF01801484307EB800006EB00106D
:1014C000A5FB0010400900F0F007FFF725FB00EB3B
:1014D000C00101EB001061688900B0FBF1F0A5FBD1
:1014E0000010400907EB0017FFF716FB00EBC001E7
:1014F00001EB001061688900B0FBF1F8FFF70CFB0D
:1015000000EBC00101EB001061688900B0FBF1F055
:10151000A5FB001040096FF01801484308EB80005C
:1015200006EB0010A5FB00102168C0F343103844FF
:101530008860BDE8F0812068884201D0904259D18E
:10154000FFF7EAFA00EBC00101EB00106168490007
:10155000B0FBF1F0A5FB001040090701FFF7DCFA32
:1015600000EBC00101EB001061684900B0FBF1F82D
:10157000FFF7D2FA00EBC00101EB001061684900EF
:10158000B0FBF1F0A5FB001040096FF018014843D3
:1015900008EB800006EBC000A5FB0010400900F03E
:1015A000F80007EB4007FFF7B7FA00EBC00101EBCB
:1015B000001061684900B0FBF1F8FFF7ADFA00EBED
:1015C000C00101EB001061684900B0FBF1F0A5FB20
:1015D000001040096FF01801484308EB800006EB4B
:1015E000C000A5FB00102168C0F342103844886099
:1015F000BDE8F081FFF780FA00EBC00101EB0010BD
:1016000061684900B0FBF1F0A5FB0010400907013B
:10161000FFF772FA00EBC00101EB001061684900AE
:10162000B0FBF1F8FFF768FA00EBC00101EB001026
:1016300061684900B0FBF1F0A5FB001040096FF0B4
:101640001801484308EB800006EBC000A5FB001022
:10165000400900F0F80007EB4007FFF74DFA00EBF8
:10166000C00101EB001061684900B0FBF1F8FFF721
:1016700043FA00EBC00101EB001061684900B0FBC8
:10168000F1F0A5FB001040096FF01801484308EB8A
:10169000800006EBC000A5FB00102168C0F34210DB
:1016A00038448860BDE8F081FFF726FA00EBC001FE
:1016B00001EB001061688900B0FBF1F7FFF71CFA3D
:1016C00000EBC00101EB001061688900B0FBF1F094
:1016D000A5FB001040096FF01801484307EB80009C
:1016E00006EB0010A5FB0010400900F0F007FFF723
:1016F00003FA00EBC00101EB001061688900B0FB48
:10170000F1F0A5FB0010400907EB0017FFF7F4F913
:1017100000EBC00101EB001061688900B0FBF1F83B
:10172000FFF7EAF900EBC00101EB001061688900E6
:10173000B0FBF1F0A5FB001040096FF01801484321
:1017400008EB800006EB0010A5FB00102168C0F339
:10175000431038448860BDE8F08100000014014067
:10176000001001401F85EB5108B541480068006832
:1017700000F0200060B100BF002000903C480068ED
:10178000006800903A4800684068009000BF6EE032
:101790003848006800F01000002868D000BF002022
:1017A0000090334800680068009031480068406845
:1017B000009000BF00BF30480068006800F40020BF
:1017C00058BB2D480068006820F001002A490968CC
:1017D0000860294800684068C0F124002749088053
:1017E000242025490968486023480068006840F4BF
:1017F00000202149096808601F480068006840F01F
:1018000001001D49096808601C48008812282ED173
:101810001B491C4800F054F829E01748006800688C
:1018200020F0010014490968086013480068406806
:10183000C0F124001149088024200F49096848603C
:101840001148806A20F400200F4988620A48006825
:10185000006840F0010008490968086007480088EE
:10186000122804D106490748243000F029F808BDA1
:101870001400002000480040540000200400002014
:10188000B4000020CA0000200060024000BFFEE754
:10189000FEF7BEFFFFF73CFDFFF778FCFFF75AFCB1
:1018A000FFF7C0FC00F002F800BFFEE710B52422ED
:1018B0000249A1F12400FFF7D7FC10BDEE00002083
:1018C00000B101B970470278437842EA0322C2F3BB
:1018D0000A020A804278D210837842EA4312C2F3A5
:1018E0000A024A8082789211C37842EA830203791D
:1018F00042EA8322C2F30A028A80027952104379B3
:1019000042EAC312C2F30A02CA804279C2F3011248
:101910008A72427912119308CB728279C37942EAB2
:10192000032212B28A81027A437A42EA032213B274
:1019300001F10C02CB81827AC37A42EA032213B20C
:1019400001F10C020B82037B8B74437BCB74827B93
:10195000C37B42EA03228A82027C437C42EA03225E
:1019600012B20A810A88A2F5806212B20A804A88FD
:10197000A2F5806212B24A808A88A2F5806212B211
:101980008A80CA88A2F5806212B2CA800A89A2F54A
:10199000806212B20A8100BF94E74FF04070E1EE1E
:1019A000100A70470000000000000000010203045C
:1019B00006070809000000000102030400061016D3
:1019C00000061016E41900080000002014000000B2
:1019D000C4010008F8190008140000206407000082
:1019E000E00100080024F4000000000001000000F5
:0819F0001000000000000000DF
:040000050800018965
:00000001FF
